{
  "_format": "hh-sol-artifact-1",
  "contractName": "FusionCredit",
  "sourceName": "contracts/FusionCredit.sol",
  "abi": [
    {
      "inputs": [
        {
          "internalType": "contract IVerifier",
          "name": "_verifier",
          "type": "address"
        }
      ],
      "stateMutability": "nonpayable",
      "type": "constructor"
    },
    {
      "inputs": [
        {
          "internalType": "address",
          "name": "_addr",
          "type": "address"
        }
      ],
      "name": "getScore",
      "outputs": [
        {
          "internalType": "uint256",
          "name": "score",
          "type": "uint256"
        },
        {
          "internalType": "uint256",
          "name": "version",
          "type": "uint256"
        },
        {
          "internalType": "uint256",
          "name": "timestamp",
          "type": "uint256"
        }
      ],
      "stateMutability": "view",
      "type": "function"
    },
    {
      "inputs": [
        {
          "internalType": "address",
          "name": "",
          "type": "address"
        }
      ],
      "name": "scores",
      "outputs": [
        {
          "internalType": "uint16",
          "name": "score",
          "type": "uint16"
        },
        {
          "internalType": "uint16",
          "name": "version",
          "type": "uint16"
        },
        {
          "internalType": "uint48",
          "name": "timestamp",
          "type": "uint48"
        }
      ],
      "stateMutability": "view",
      "type": "function"
    },
    {
      "inputs": [
        {
          "internalType": "uint256",
          "name": "score",
          "type": "uint256"
        },
        {
          "internalType": "uint256",
          "name": "version",
          "type": "uint256"
        },
        {
          "internalType": "uint256",
          "name": "timestamp",
          "type": "uint256"
        },
        {
          "internalType": "uint256[8]",
          "name": "proof",
          "type": "uint256[8]"
        }
      ],
      "name": "setScore",
      "outputs": [],
      "stateMutability": "nonpayable",
      "type": "function"
    },
    {
      "inputs": [
        {
          "internalType": "contract IVerifier",
          "name": "_verifier",
          "type": "address"
        }
      ],
      "name": "setVerifier",
      "outputs": [],
      "stateMutability": "nonpayable",
      "type": "function"
    },
    {
      "inputs": [],
      "name": "verifier",
      "outputs": [
        {
          "internalType": "contract IVerifier",
          "name": "",
          "type": "address"
        }
      ],
      "stateMutability": "view",
      "type": "function"
    }
  ],
  "bytecode": "0x60806040523480156200001157600080fd5b506040516200137b3803806200137b8339818101604052810190620000379190620000d6565b336000806101000a81548173ffffffffffffffffffffffffffffffffffffffff021916908373ffffffffffffffffffffffffffffffffffffffff16021790555080600160006101000a81548173ffffffffffffffffffffffffffffffffffffffff021916908373ffffffffffffffffffffffffffffffffffffffff1602179055505062000164565b600081519050620000d0816200014a565b92915050565b600060208284031215620000e957600080fd5b6000620000f984828501620000bf565b91505092915050565b60006200010f826200012a565b9050919050565b6000620001238262000102565b9050919050565b600073ffffffffffffffffffffffffffffffffffffffff82169050919050565b620001558162000116565b81146200016157600080fd5b50565b61120780620001746000396000f3fe608060405234801561001057600080fd5b50600436106100575760003560e01c80632b7ac3f31461005c5780635437988d1461007a57806376dd110f14610096578063a9e5811e146100c8578063d47875d0146100e4575b600080fd5b610064610116565b6040516100719190610dcb565b60405180910390f35b610094600480360381019061008f9190610a94565b61013c565b005b6100b060048036038101906100ab9190610a42565b6101d8565b6040516100bf93929190610e66565b60405180910390f35b6100e260048036038101906100dd9190610abd565b610230565b005b6100fe60048036038101906100f99190610a42565b610870565b60405161010d93929190610e9d565b60405180910390f35b600160009054906101000a900473ffffffffffffffffffffffffffffffffffffffff1681565b60008054906101000a900473ffffffffffffffffffffffffffffffffffffffff1673ffffffffffffffffffffffffffffffffffffffff163373ffffffffffffffffffffffffffffffffffffffff161461019457600080fd5b80600160006101000a81548173ffffffffffffffffffffffffffffffffffffffff021916908373ffffffffffffffffffffffffffffffffffffffff16021790555050565b60026020528060005260406000206000915090508060000160009054906101000a900461ffff16908060000160029054906101000a900461ffff16908060000160049054906101000a900465ffffffffffff16905083565b600073ffffffffffffffffffffffffffffffffffffffff16600160009054906101000a900473ffffffffffffffffffffffffffffffffffffffff1673ffffffffffffffffffffffffffffffffffffffff1614156102c2576040517f08c379a00000000000000000000000000000000000000000000000000000000081526004016102b990610e06565b60405180910390fd5b6000600260003373ffffffffffffffffffffffffffffffffffffffff1673ffffffffffffffffffffffffffffffffffffffff1681526020019081526020016000206040518060600160405290816000820160009054906101000a900461ffff1661ffff1661ffff1681526020016000820160029054906101000a900461ffff1661ffff1661ffff1681526020016000820160049054906101000a900465ffffffffffff1665ffffffffffff1665ffffffffffff16815250509050806020015161ffff168410156103c7576040517f08c379a00000000000000000000000000000000000000000000000000000000081526004016103be90610de6565b60405180910390fd5b806040015165ffffffffffff168311610415576040517f08c379a000000000000000000000000000000000000000000000000000000000815260040161040c90610e46565b60405180910390fd5b60006040518060600160405280878152602001868152602001858152509050600060405180604001604052808560006008811061047b577f4e487b7100000000000000000000000000000000000000000000000000000000600052603260045260246000fd5b60200201518152602001856001600881106104bf577f4e487b7100000000000000000000000000000000000000000000000000000000600052603260045260246000fd5b602002015181525090506000604051806040016040528060405180604001604052808860026008811061051b577f4e487b7100000000000000000000000000000000000000000000000000000000600052603260045260246000fd5b602002015181526020018860036008811061055f577f4e487b7100000000000000000000000000000000000000000000000000000000600052603260045260246000fd5b602002015181525081526020016040518060400160405280886004600881106105b1577f4e487b7100000000000000000000000000000000000000000000000000000000600052603260045260246000fd5b60200201518152602001886005600881106105f5577f4e487b7100000000000000000000000000000000000000000000000000000000600052603260045260246000fd5b602002015181525081525090506000604051806040016040528087600660088110610649577f4e487b7100000000000000000000000000000000000000000000000000000000600052603260045260246000fd5b602002015181526020018760076008811061068d577f4e487b7100000000000000000000000000000000000000000000000000000000600052603260045260246000fd5b60200201518152509050600160009054906101000a900473ffffffffffffffffffffffffffffffffffffffff1673ffffffffffffffffffffffffffffffffffffffff166311479fea848484886040518563ffffffff1660e01b81526004016106f89493929190610d84565b60206040518083038186803b15801561071057600080fd5b505afa158015610724573d6000803e3d6000fd5b505050506040513d601f19601f820116820180604052508101906107489190610a6b565b610787576040517f08c379a000000000000000000000000000000000000000000000000000000000815260040161077e90610e26565b60405180910390fd5b60405180606001604052808a61ffff1681526020018961ffff1681526020018865ffffffffffff16815250600260003373ffffffffffffffffffffffffffffffffffffffff1673ffffffffffffffffffffffffffffffffffffffff16815260200190815260200160002060008201518160000160006101000a81548161ffff021916908361ffff16021790555060208201518160000160026101000a81548161ffff021916908361ffff16021790555060408201518160000160046101000a81548165ffffffffffff021916908365ffffffffffff160217905550905050505050505050505050565b600080600080600260008673ffffffffffffffffffffffffffffffffffffffff1673ffffffffffffffffffffffffffffffffffffffff1681526020019081526020016000206040518060600160405290816000820160009054906101000a900461ffff1661ffff1661ffff1681526020016000820160029054906101000a900461ffff1661ffff1661ffff1681526020016000820160049054906101000a900465ffffffffffff1665ffffffffffff1665ffffffffffff168152505090508060000151816020015182604001518261ffff1692508161ffff1691508065ffffffffffff169050935093509350509193909250565b600061097761097284610ef9565b610ed4565b9050808285602086028201111561098d57600080fd5b60005b858110156109bd57816109a38882610a2d565b845260208401935060208301925050600181019050610990565b5050509392505050565b6000813590506109d681611175565b92915050565b600082601f8301126109ed57600080fd5b60086109fa848285610964565b91505092915050565b600081519050610a128161118c565b92915050565b600081359050610a27816111a3565b92915050565b600081359050610a3c816111ba565b92915050565b600060208284031215610a5457600080fd5b6000610a62848285016109c7565b91505092915050565b600060208284031215610a7d57600080fd5b6000610a8b84828501610a03565b91505092915050565b600060208284031215610aa657600080fd5b6000610ab484828501610a18565b91505092915050565b6000806000806101608587031215610ad457600080fd5b6000610ae287828801610a2d565b9450506020610af387828801610a2d565b9350506040610b0487828801610a2d565b9250506060610b15878288016109dc565b91505092959194509250565b6000610b2d8383610ba8565b60408301905092915050565b6000610b458383610d57565b60208301905092915050565b610b5a81610f3d565b610b648184610f85565b9250610b6f82610f1f565b8060005b83811015610ba0578151610b878782610b21565b9650610b9283610f5e565b925050600181019050610b73565b505050505050565b610bb181610f48565b610bbb8184610f90565b9250610bc682610f29565b8060005b83811015610bf7578151610bde8782610b39565b9650610be983610f6b565b925050600181019050610bca565b505050505050565b610c0881610f48565b610c128184610f9b565b9250610c1d82610f29565b8060005b83811015610c4e578151610c358782610b39565b9650610c4083610f6b565b925050600181019050610c21565b505050505050565b610c5f81610f53565b610c698184610fa6565b9250610c7482610f33565b8060005b83811015610ca5578151610c8c8782610b39565b9650610c9783610f78565b925050600181019050610c78565b505050505050565b610cb68161103c565b82525050565b6000610cc9601983610fb1565b9150610cd4826110d1565b602082019050919050565b6000610cec601083610fb1565b9150610cf7826110fa565b602082019050919050565b6000610d0f600f83610fb1565b9150610d1a82611123565b602082019050919050565b6000610d32601b83610fb1565b9150610d3d8261114c565b602082019050919050565b610d5181610ff2565b82525050565b610d6081611020565b82525050565b610d6f81611020565b82525050565b610d7e8161102a565b82525050565b600061016082019050610d9a6000830187610bff565b610da76040830186610b51565b610db460c0830185610bff565b610dc2610100830184610c56565b95945050505050565b6000602082019050610de06000830184610cad565b92915050565b60006020820190508181036000830152610dff81610cbc565b9050919050565b60006020820190508181036000830152610e1f81610cdf565b9050919050565b60006020820190508181036000830152610e3f81610d02565b9050919050565b60006020820190508181036000830152610e5f81610d25565b9050919050565b6000606082019050610e7b6000830186610d48565b610e886020830185610d48565b610e956040830184610d75565b949350505050565b6000606082019050610eb26000830186610d66565b610ebf6020830185610d66565b610ecc6040830184610d66565b949350505050565b6000610ede610eef565b9050610eea8282611060565b919050565b6000604051905090565b600067ffffffffffffffff821115610f1457610f13611091565b5b602082029050919050565b6000819050919050565b6000819050919050565b6000819050919050565b600060029050919050565b600060029050919050565b600060039050919050565b6000602082019050919050565b6000602082019050919050565b6000602082019050919050565b600081905092915050565b600081905092915050565b600081905092915050565b600081905092915050565b600082825260208201905092915050565b6000610fcd82611000565b9050919050565b60008115159050919050565b6000610feb82610fc2565b9050919050565b600061ffff82169050919050565b600073ffffffffffffffffffffffffffffffffffffffff82169050919050565b6000819050919050565b600065ffffffffffff82169050919050565b60006110478261104e565b9050919050565b600061105982611000565b9050919050565b611069826110c0565b810181811067ffffffffffffffff8211171561108857611087611091565b5b80604052505050565b7f4e487b7100000000000000000000000000000000000000000000000000000000600052604160045260246000fd5b6000601f19601f8301169050919050565b7f43616e277420757365206561726c6965722076657273696f6e00000000000000600082015250565b7f5665726966696572206e6f742073657400000000000000000000000000000000600082015250565b7f50726f6f66206e6f742076616c69640000000000000000000000000000000000600082015250565b7f43616e277420757365206561726c6965722074696d657374616d700000000000600082015250565b61117e81610fc2565b811461118957600080fd5b50565b61119581610fd4565b81146111a057600080fd5b50565b6111ac81610fe0565b81146111b757600080fd5b50565b6111c381611020565b81146111ce57600080fd5b5056fea2646970667358221220562c9c37746f7595367db5344cb8fd5534d4b9105d076a822324ae730494882064736f6c63430008040033",
  "linkReferences": {},
  "deployedLinkReferences": {}
}